{
  "_format": "hh-sol-artifact-1",
  "contractName": "FreelanceEscrow",
  "sourceName": "contracts/contract.sol",
  "abi": [
    {
      "inputs": [],
      "stateMutability": "nonpayable",
      "type": "constructor"
    },
    {
      "anonymous": false,
      "inputs": [
        {
          "indexed": false,
          "internalType": "uint256",
          "name": "jobId",
          "type": "uint256"
        }
      ],
      "name": "JobCompleted",
      "type": "event"
    },
    {
      "anonymous": false,
      "inputs": [
        {
          "indexed": false,
          "internalType": "uint256",
          "name": "jobId",
          "type": "uint256"
        },
        {
          "indexed": false,
          "internalType": "address",
          "name": "client",
          "type": "address"
        },
        {
          "indexed": false,
          "internalType": "address",
          "name": "freelancer",
          "type": "address"
        },
        {
          "indexed": false,
          "internalType": "uint256",
          "name": "totalAmount",
          "type": "uint256"
        }
      ],
      "name": "JobCreated",
      "type": "event"
    },
    {
      "anonymous": false,
      "inputs": [
        {
          "indexed": false,
          "internalType": "uint256",
          "name": "jobId",
          "type": "uint256"
        },
        {
          "indexed": false,
          "internalType": "uint256",
          "name": "milestoneIndex",
          "type": "uint256"
        }
      ],
      "name": "MilestoneCompleted",
      "type": "event"
    },
    {
      "anonymous": false,
      "inputs": [
        {
          "indexed": false,
          "internalType": "uint256",
          "name": "jobId",
          "type": "uint256"
        },
        {
          "indexed": false,
          "internalType": "uint256",
          "name": "milestoneIndex",
          "type": "uint256"
        },
        {
          "indexed": false,
          "internalType": "uint256",
          "name": "amount",
          "type": "uint256"
        }
      ],
      "name": "PaymentReleased",
      "type": "event"
    },
    {
      "inputs": [
        {
          "internalType": "address",
          "name": "_freelancer",
          "type": "address"
        },
        {
          "internalType": "uint256",
          "name": "_totalAmount",
          "type": "uint256"
        },
        {
          "internalType": "string[]",
          "name": "_descriptions",
          "type": "string[]"
        },
        {
          "internalType": "uint256[]",
          "name": "_amounts",
          "type": "uint256[]"
        },
        {
          "internalType": "uint256[]",
          "name": "_dueDates",
          "type": "uint256[]"
        }
      ],
      "name": "createJob",
      "outputs": [],
      "stateMutability": "payable",
      "type": "function"
    },
    {
      "inputs": [],
      "name": "jobCounter",
      "outputs": [
        {
          "internalType": "uint256",
          "name": "",
          "type": "uint256"
        }
      ],
      "stateMutability": "view",
      "type": "function"
    },
    {
      "inputs": [
        {
          "internalType": "uint256",
          "name": "",
          "type": "uint256"
        }
      ],
      "name": "jobs",
      "outputs": [
        {
          "internalType": "address",
          "name": "client",
          "type": "address"
        },
        {
          "internalType": "address",
          "name": "freelancer",
          "type": "address"
        },
        {
          "internalType": "uint256",
          "name": "totalAmount",
          "type": "uint256"
        },
        {
          "internalType": "uint256",
          "name": "escrowBalance",
          "type": "uint256"
        },
        {
          "internalType": "bool",
          "name": "isCompleted",
          "type": "bool"
        }
      ],
      "stateMutability": "view",
      "type": "function"
    },
    {
      "inputs": [
        {
          "internalType": "uint256",
          "name": "jobId",
          "type": "uint256"
        }
      ],
      "name": "markJobCompleted",
      "outputs": [],
      "stateMutability": "nonpayable",
      "type": "function"
    },
    {
      "inputs": [
        {
          "internalType": "uint256",
          "name": "jobId",
          "type": "uint256"
        },
        {
          "internalType": "uint256",
          "name": "milestoneIndex",
          "type": "uint256"
        }
      ],
      "name": "markMilestoneCompleted",
      "outputs": [],
      "stateMutability": "nonpayable",
      "type": "function"
    },
    {
      "inputs": [],
      "name": "platform",
      "outputs": [
        {
          "internalType": "address",
          "name": "",
          "type": "address"
        }
      ],
      "stateMutability": "view",
      "type": "function"
    },
    {
      "inputs": [],
      "name": "platformFeePercentage",
      "outputs": [
        {
          "internalType": "uint256",
          "name": "",
          "type": "uint256"
        }
      ],
      "stateMutability": "view",
      "type": "function"
    },
    {
      "inputs": [
        {
          "internalType": "uint256",
          "name": "jobId",
          "type": "uint256"
        },
        {
          "internalType": "uint256",
          "name": "milestoneIndex",
          "type": "uint256"
        }
      ],
      "name": "releaseMilestonePayment",
      "outputs": [],
      "stateMutability": "nonpayable",
      "type": "function"
    },
    {
      "inputs": [
        {
          "internalType": "uint256",
          "name": "jobId",
          "type": "uint256"
        }
      ],
      "name": "withdrawRemainingFunds",
      "outputs": [],
      "stateMutability": "nonpayable",
      "type": "function"
    }
  ],
  "bytecode": "0x60806040526002600155348015601457600080fd5b50336000806101000a81548173ffffffffffffffffffffffffffffffffffffffff021916908373ffffffffffffffffffffffffffffffffffffffff160217905550612002806100646000396000f3fe6080604052600436106100865760003560e01c80635cae48f5116100595780635cae48f51461014b57806364bd8e45146101745780638c936e6514610190578063bd798a3f146101b9578063cdd78cfc146101e257610086565b8063180aedf31461008b5780634bde38c8146100cc57806350355d76146100f75780635c1615f314610122575b600080fd5b34801561009757600080fd5b506100b260048036038101906100ad9190610fc4565b61020d565b6040516100c395949392919061105c565b60405180910390f35b3480156100d857600080fd5b506100e1610290565b6040516100ee91906110af565b60405180910390f35b34801561010357600080fd5b5061010c6102b4565b60405161011991906110ca565b60405180910390f35b34801561012e57600080fd5b5061014960048036038101906101449190610fc4565b6102ba565b005b34801561015757600080fd5b50610172600480360381019061016d91906110e5565b6104b5565b005b61018e60048036038101906101899190611440565b6106ae565b005b34801561019c57600080fd5b506101b760048036038101906101b291906110e5565b61099c565b005b3480156101c557600080fd5b506101e060048036038101906101db9190610fc4565b610d9c565b005b3480156101ee57600080fd5b506101f7610f74565b60405161020491906110ca565b60405180910390f35b60026020528060005260406000206000915090508060000160009054906101000a900473ffffffffffffffffffffffffffffffffffffffff16908060010160009054906101000a900473ffffffffffffffffffffffffffffffffffffffff16908060020154908060030154908060040160009054906101000a900460ff16905085565b60008054906101000a900473ffffffffffffffffffffffffffffffffffffffff1681565b60035481565b806002600082815260200190815260200160002060000160009054906101000a900473ffffffffffffffffffffffffffffffffffffffff1673ffffffffffffffffffffffffffffffffffffffff163373ffffffffffffffffffffffffffffffffffffffff161461035f576040517f08c379a00000000000000000000000000000000000000000000000000000000081526004016103569061156c565b60405180910390fd5b60006002600084815260200190815260200160002090508060040160009054906101000a900460ff16156103c8576040517f08c379a00000000000000000000000000000000000000000000000000000000081526004016103bf906115d8565b60405180910390fd5b60005b816005018054905081101561045b578160050181815481106103f0576103ef6115f8565b5b906000526020600020906004020160030160019054906101000a900460ff1661044e576040517f08c379a000000000000000000000000000000000000000000000000000000000815260040161044590611673565b60405180910390fd5b80806001019150506103cb565b5060018160040160006101000a81548160ff0219169083151502179055507f02244c8529cb95e213ee542e76e7776342b3dabd10203d01472bbf4441be8929836040516104a891906110ca565b60405180910390a1505050565b816002600082815260200190815260200160002060000160009054906101000a900473ffffffffffffffffffffffffffffffffffffffff1673ffffffffffffffffffffffffffffffffffffffff163373ffffffffffffffffffffffffffffffffffffffff161461055a576040517f08c379a00000000000000000000000000000000000000000000000000000000081526004016105519061156c565b60405180910390fd5b6000600260008581526020019081526020016000209050806005018054905083106105ba576040517f08c379a00000000000000000000000000000000000000000000000000000000081526004016105b1906116df565b60405180910390fd5b8060050183815481106105d0576105cf6115f8565b5b906000526020600020906004020160030160009054906101000a900460ff161561062f576040517f08c379a00000000000000000000000000000000000000000000000000000000081526004016106269061174b565b60405180910390fd5b6001816005018481548110610647576106466115f8565b5b906000526020600020906004020160030160006101000a81548160ff0219169083151502179055507f1b7218c0ac23ea9cbe4df603d2b340fbf469a115b73ea3d11460727f445d6be184846040516106a092919061176b565b60405180910390a150505050565b8334146106f0576040517f08c379a00000000000000000000000000000000000000000000000000000000081526004016106e7906117e0565b60405180910390fd5b81518351148015610702575080518251145b610741576040517f08c379a00000000000000000000000000000000000000000000000000000000081526004016107389061184c565b60405180910390fd5b600360008154809291906107549061189b565b919050555060006002600060035481526020019081526020016000209050338160000160006101000a81548173ffffffffffffffffffffffffffffffffffffffff021916908373ffffffffffffffffffffffffffffffffffffffff160217905550858160010160006101000a81548173ffffffffffffffffffffffffffffffffffffffff021916908373ffffffffffffffffffffffffffffffffffffffff16021790555084816002018190555084816003018190555060008160040160006101000a81548160ff02191690831515021790555060005b845181101561095457816005016040518060a00160405280878481518110610855576108546115f8565b5b60200260200101518152602001868481518110610875576108746115f8565b5b60200260200101518152602001858481518110610895576108946115f8565b5b6020026020010151815260200160001515815260200160001515815250908060018154018082558091505060019003906000526020600020906004020160009091909190915060008201518160000190816108f09190611afa565b50602082015181600101556040820151816002015560608201518160030160006101000a81548160ff02191690831515021790555060808201518160030160016101000a81548160ff0219169083151502179055505050808060010191505061082a565b507f8f4ee83cefe0dfb2f73fe6057bfa5b233fc43358bbb5f5606f444cbd4c5c4f8c60035433888860405161098c9493929190611bcc565b60405180910390a1505050505050565b816002600082815260200190815260200160002060000160009054906101000a900473ffffffffffffffffffffffffffffffffffffffff1673ffffffffffffffffffffffffffffffffffffffff163373ffffffffffffffffffffffffffffffffffffffff1614610a41576040517f08c379a0000000000000000000000000000000000000000000000000000000008152600401610a389061156c565b60405180910390fd5b600060026000858152602001908152602001600020905080600501805490508310610aa1576040517f08c379a0000000000000000000000000000000000000000000000000000000008152600401610a98906116df565b60405180910390fd5b806005018381548110610ab757610ab66115f8565b5b906000526020600020906004020160030160009054906101000a900460ff16610b15576040517f08c379a0000000000000000000000000000000000000000000000000000000008152600401610b0c90611c5d565b60405180910390fd5b806005018381548110610b2b57610b2a6115f8565b5b906000526020600020906004020160030160019054906101000a900460ff1615610b8a576040517f08c379a0000000000000000000000000000000000000000000000000000000008152600401610b8190611cc9565b60405180910390fd5b6000816005018481548110610ba257610ba16115f8565b5b90600052602060002090600402016001015490506000606460015483610bc89190611ce9565b610bd29190611d5a565b905060008183610be29190611d8b565b90508284600301541015610c2b576040517f08c379a0000000000000000000000000000000000000000000000000000000008152600401610c2290611e0b565b60405180910390fd5b82846003016000828254610c3f9190611d8b565b925050819055506001846005018781548110610c5e57610c5d6115f8565b5b906000526020600020906004020160030160016101000a81548160ff02191690831515021790555060008054906101000a900473ffffffffffffffffffffffffffffffffffffffff1673ffffffffffffffffffffffffffffffffffffffff166108fc839081150290604051600060405180830381858888f19350505050158015610cec573d6000803e3d6000fd5b508360010160009054906101000a900473ffffffffffffffffffffffffffffffffffffffff1673ffffffffffffffffffffffffffffffffffffffff166108fc829081150290604051600060405180830381858888f19350505050158015610d57573d6000803e3d6000fd5b507f3c70b1e8034b5738ec77fbfdaa4d28906a0b3160018d67a2dc7b534e53e33fe0878783604051610d8b93929190611e2b565b60405180910390a150505050505050565b806002600082815260200190815260200160002060010160009054906101000a900473ffffffffffffffffffffffffffffffffffffffff1673ffffffffffffffffffffffffffffffffffffffff163373ffffffffffffffffffffffffffffffffffffffff1614610e41576040517f08c379a0000000000000000000000000000000000000000000000000000000008152600401610e3890611eae565b60405180910390fd5b60006002600084815260200190815260200160002090508060040160009054906101000a900460ff16610ea9576040517f08c379a0000000000000000000000000000000000000000000000000000000008152600401610ea090611f40565b60405180910390fd5b6000816003015411610ef0576040517f08c379a0000000000000000000000000000000000000000000000000000000008152600401610ee790611fac565b60405180910390fd5b600081600301549050600082600301819055508160010160009054906101000a900473ffffffffffffffffffffffffffffffffffffffff1673ffffffffffffffffffffffffffffffffffffffff166108fc829081150290604051600060405180830381858888f19350505050158015610f6d573d6000803e3d6000fd5b5050505050565b60015481565b6000604051905090565b600080fd5b600080fd5b6000819050919050565b610fa181610f8e565b8114610fac57600080fd5b50565b600081359050610fbe81610f98565b92915050565b600060208284031215610fda57610fd9610f84565b5b6000610fe884828501610faf565b91505092915050565b600073ffffffffffffffffffffffffffffffffffffffff82169050919050565b600061101c82610ff1565b9050919050565b61102c81611011565b82525050565b61103b81610f8e565b82525050565b60008115159050919050565b61105681611041565b82525050565b600060a0820190506110716000830188611023565b61107e6020830187611023565b61108b6040830186611032565b6110986060830185611032565b6110a5608083018461104d565b9695505050505050565b60006020820190506110c46000830184611023565b92915050565b60006020820190506110df6000830184611032565b92915050565b600080604083850312156110fc576110fb610f84565b5b600061110a85828601610faf565b925050602061111b85828601610faf565b9150509250929050565b61112e81611011565b811461113957600080fd5b50565b60008135905061114b81611125565b92915050565b600080fd5b6000601f19601f8301169050919050565b7f4e487b7100000000000000000000000000000000000000000000000000000000600052604160045260246000fd5b61119f82611156565b810181811067ffffffffffffffff821117156111be576111bd611167565b5b80604052505050565b60006111d1610f7a565b90506111dd8282611196565b919050565b600067ffffffffffffffff8211156111fd576111fc611167565b5b602082029050602081019050919050565b600080fd5b600080fd5b600067ffffffffffffffff82111561123357611232611167565b5b61123c82611156565b9050602081019050919050565b82818337600083830152505050565b600061126b61126684611218565b6111c7565b90508281526020810184848401111561128757611286611213565b5b611292848285611249565b509392505050565b600082601f8301126112af576112ae611151565b5b81356112bf848260208601611258565b91505092915050565b60006112db6112d6846111e2565b6111c7565b905080838252602082019050602084028301858111156112fe576112fd61120e565b5b835b8181101561134557803567ffffffffffffffff81111561132357611322611151565b5b808601611330898261129a565b85526020850194505050602081019050611300565b5050509392505050565b600082601f83011261136457611363611151565b5b81356113748482602086016112c8565b91505092915050565b600067ffffffffffffffff82111561139857611397611167565b5b602082029050602081019050919050565b60006113bc6113b78461137d565b6111c7565b905080838252602082019050602084028301858111156113df576113de61120e565b5b835b8181101561140857806113f48882610faf565b8452602084019350506020810190506113e1565b5050509392505050565b600082601f83011261142757611426611151565b5b81356114378482602086016113a9565b91505092915050565b600080600080600060a0868803121561145c5761145b610f84565b5b600061146a8882890161113c565b955050602061147b88828901610faf565b945050604086013567ffffffffffffffff81111561149c5761149b610f89565b5b6114a88882890161134f565b935050606086013567ffffffffffffffff8111156114c9576114c8610f89565b5b6114d588828901611412565b925050608086013567ffffffffffffffff8111156114f6576114f5610f89565b5b61150288828901611412565b9150509295509295909350565b600082825260208201905092915050565b7f4e6f7420746865206a6f6220636c69656e740000000000000000000000000000600082015250565b600061155660128361150f565b915061156182611520565b602082019050919050565b6000602082019050818103600083015261158581611549565b9050919050565b7f4a6f6220616c726561647920636f6d706c657465640000000000000000000000600082015250565b60006115c260158361150f565b91506115cd8261158c565b602082019050919050565b600060208201905081810360008301526115f1816115b5565b9050919050565b7f4e487b7100000000000000000000000000000000000000000000000000000000600052603260045260246000fd5b7f416c6c206d696c6573746f6e6573206d75737420626520706169640000000000600082015250565b600061165d601b8361150f565b915061166882611627565b602082019050919050565b6000602082019050818103600083015261168c81611650565b9050919050565b7f496e76616c6964206d696c6573746f6e6520696e646578000000000000000000600082015250565b60006116c960178361150f565b91506116d482611693565b602082019050919050565b600060208201905081810360008301526116f8816116bc565b9050919050565b7f4d696c6573746f6e6520616c726561647920636f6d706c657465640000000000600082015250565b6000611735601b8361150f565b9150611740826116ff565b602082019050919050565b6000602082019050818103600083015261176481611728565b9050919050565b60006040820190506117806000830185611032565b61178d6020830184611032565b9392505050565b7f4d757374206465706f7369742074686520746f74616c20616d6f756e74000000600082015250565b60006117ca601d8361150f565b91506117d582611794565b602082019050919050565b600060208201905081810360008301526117f9816117bd565b9050919050565b7f496e76616c6964206d696c6573746f6e65730000000000000000000000000000600082015250565b600061183660128361150f565b915061184182611800565b602082019050919050565b6000602082019050818103600083015261186581611829565b9050919050565b7f4e487b7100000000000000000000000000000000000000000000000000000000600052601160045260246000fd5b60006118a682610f8e565b91507fffffffffffffffffffffffffffffffffffffffffffffffffffffffffffffffff82036118d8576118d761186c565b5b600182019050919050565b600081519050919050565b7f4e487b7100000000000000000000000000000000000000000000000000000000600052602260045260246000fd5b6000600282049050600182168061193557607f821691505b602082108103611948576119476118ee565b5b50919050565b60008190508160005260206000209050919050565b60006020601f8301049050919050565b600082821b905092915050565b6000600883026119b07fffffffffffffffffffffffffffffffffffffffffffffffffffffffffffffffff82611973565b6119ba8683611973565b95508019841693508086168417925050509392505050565b6000819050919050565b60006119f76119f26119ed84610f8e565b6119d2565b610f8e565b9050919050565b6000819050919050565b611a11836119dc565b611a25611a1d826119fe565b848454611980565b825550505050565b600090565b611a3a611a2d565b611a45818484611a08565b505050565b5b81811015611a6957611a5e600082611a32565b600181019050611a4b565b5050565b601f821115611aae57611a7f8161194e565b611a8884611963565b81016020851015611a97578190505b611aab611aa385611963565b830182611a4a565b50505b505050565b600082821c905092915050565b6000611ad160001984600802611ab3565b1980831691505092915050565b6000611aea8383611ac0565b9150826002028217905092915050565b611b03826118e3565b67ffffffffffffffff811115611b1c57611b1b611167565b5b611b26825461191d565b611b31828285611a6d565b600060209050601f831160018114611b645760008415611b52578287015190505b611b5c8582611ade565b865550611bc4565b601f198416611b728661194e565b60005b82811015611b9a57848901518255600182019150602085019450602081019050611b75565b86831015611bb75784890151611bb3601f891682611ac0565b8355505b6001600288020188555050505b505050505050565b6000608082019050611be16000830187611032565b611bee6020830186611023565b611bfb6040830185611023565b611c086060830184611032565b95945050505050565b7f4d696c6573746f6e65206e6f74206d61726b656420636f6d706c657465000000600082015250565b6000611c47601d8361150f565b9150611c5282611c11565b602082019050919050565b60006020820190508181036000830152611c7681611c3a565b9050919050565b7f4d696c6573746f6e6520616c7265616479207061696400000000000000000000600082015250565b6000611cb360168361150f565b9150611cbe82611c7d565b602082019050919050565b60006020820190508181036000830152611ce281611ca6565b9050919050565b6000611cf482610f8e565b9150611cff83610f8e565b9250828202611d0d81610f8e565b91508282048414831517611d2457611d2361186c565b5b5092915050565b7f4e487b7100000000000000000000000000000000000000000000000000000000600052601260045260246000fd5b6000611d6582610f8e565b9150611d7083610f8e565b925082611d8057611d7f611d2b565b5b828204905092915050565b6000611d9682610f8e565b9150611da183610f8e565b9250828203905081811115611db957611db861186c565b5b92915050565b7f496e73756666696369656e742066756e647320696e20657363726f7700000000600082015250565b6000611df5601c8361150f565b9150611e0082611dbf565b602082019050919050565b60006020820190508181036000830152611e2481611de8565b9050919050565b6000606082019050611e406000830186611032565b611e4d6020830185611032565b611e5a6040830184611032565b949350505050565b7f4e6f74207468652061737369676e656420667265656c616e6365720000000000600082015250565b6000611e98601b8361150f565b9150611ea382611e62565b602082019050919050565b60006020820190508181036000830152611ec781611e8b565b9050919050565b7f4a6f62206d757374206265206d61726b656420636f6d706c657465642066697260008201527f7374000000000000000000000000000000000000000000000000000000000000602082015250565b6000611f2a60228361150f565b9150611f3582611ece565b604082019050919050565b60006020820190508181036000830152611f5981611f1d565b9050919050565b7f4e6f2066756e6473206c65667420746f20776974686472617700000000000000600082015250565b6000611f9660198361150f565b9150611fa182611f60565b602082019050919050565b60006020820190508181036000830152611fc581611f89565b905091905056fea264697066735822122080416f56c6011410351f30809016b11c17aa88015346fbf8f2d7b6793afcfe5564736f6c634300081c0033",
  "linkReferences": {},
  "deployedLinkReferences": {}
}